S0030000FC
S30D00000000015A0000000000D4C3
S319000000080000000000000000000000080000000800000008C6
S3190000001C0000008C00000094000000940000020C00001000F8
S3190000003000001000000000F40000110000001100000000A4EC
S31900000044000030000000300000000AB800003AB800003AB89C
S319000000580000000C00004000400003480000000400000000B3
S3190000006C00000000000000004000000000000348400003505C
S3190000008000000024400003780000003C00000000000000004B
S31900000094008F7800002B009F000470BF7FF1463506530434D2
S319000000A87C00286C00017C002FAC18A5900818849CF8E0F77A
S319000000BC00010004008E78002F917800358D78003567009E73
S319000000D000040000780000050236024702587800008179FF49
S319000000E4FFB3182106F84800D0012C00D10178000087706033
S319000000F8E0001C63303E0093000570C0E0001CC634020096CB
S3190000010C036303740385000570C0E0001CC63A3C009600056C
S31900000120182106E000802A05D901D7F1D6E1015F013EE60910
S319000001340D43E6077800009501E301F479FFFF5FC901C7F136
S31900000148C6E1009021F100042A04E605014548047800012EFE
S3190000015C00047028E0011C2180007048E0011C42837471A848
S31900000170E0011DAD83480004182106E00080D901D7F173E067
S31900000184E0001FFF0008C04F2A04E207C10F2A00E204C20F84
S319000001982A00E606C13FC25FE9C020BFE8F373E0E0001FFF62
S319000001AC0074C03F2A03E204C10F2A00E605C14FE9CA207F6C
S319000001C0E8F7C901C7F1009021F100040D34E40D24041CC3E5
S319000001D4FFFF2005E80581049106200420062605E2FBE80E9D
S319000001E804547CC32A142005E8073004FFFF3406FFFF240482
S319000001FC24062605E2F90004182106E023F500C4D7F12403CB
S31900000210E4327C6018F81800C803E6060605914326002003DB
S31900000224E2FD7487402F74BFD97F7486C00F7480801F444705
S3190000023844601824A80044702A0F7C84019E2423E60CD1434B
S3190000024C260FD243D343D443D543D643D743D84321F3E2F6CF
S3190000026074A0F77F2A00E605D14326002033E2FD20232E35D3
S319000002742A05E605914326052003E2FDC7F121F1000418214E
S3190000028806E00080D901D7F1013FE9B901F3C7F1C90100906C
S3090000029C21F1000442
S319000002A0000000000000000000000000000000000000000044
S319000002B4000000000000000000000000000000000000000030
S319000002C800000000000000000000000000000000000000001C
S319000002DC000000000000000000000000000000000000000008
S31900001000E8004400440044004400440044004400E8004400E6
S31900001014440044004400440044004400E80044004400440076
S319000010284400440044004400E8004400440044004400440062
S3190000103C44004400780000C044004400440044004400440042
S31900001050E8004400440044004400440044004400E800440096
S31900001064440044004400440044004400E80044004400440026
S319000010784400440044004400E8004400440044004400440012
S3190000108C44004400E8004400440044004400440044004400FE
S319000010A0E8004400440044004400440044004400E800440046
S319000010B4440044004400440044004400E800440044004400D6
S319000010C84400440044004400E80044004400440044004400C2
S319000010DC44004400E8004400440044004400440044004400AE
S309000010F0E80000000E
S31900001100182106A0D80100A0D4017C0102A6D5017C0000260B
S31900001114D6010080D701D931DA41DB51DC61DD715501003828
S319000011285521003C55410040556100445581004857E1005C79
S3190000113C711FE7F553E88010519F00007D8903A60007480074
S31900001150711FE7F55408801853E1005CC931CA41CB51CC6147
S31900001164CD71510100385121003C5141004051610044518161
S319000011780048C40100B0C5017C0103A6C6017C0FF120C70189
S3190000118C0090C8011C2100600008000000000000000000004B
S309000011A0000800003D
S319000011A4000000000000000000000000000000000000000031
S319000011B800000000000000000000000000000000000000001D
S319000011CC000000000000000000000000000000000000000009
S319000011E00000000000000000000000000000000000000000F5
S31900003000182106E00080D9017100E0001C683AB8C043C103AF
S31900003014D441D501C203D6017062E0861C6380ED7098E3F913
S319000030281C84801C1D8100107D8903A60007C901009021F182
S3190000303C0004182106F00080D501E9DDC501009020F10004C0
S3190000305000007120E0011D29C520711FE7F4552880107120C0
S31900003064E0011D29D928711FE7F455288010707FE700209329
S31900003078711FE7F4546880007168E0007160C0007180E0007C
S3190000308C7180C1007D8903A6180B09001D6B00807A20FFF804
S319000030A0000449D07118E3FE5408C0087120E2401D29010071
S319000030B47118E3FE552800A07120E01F1D2900747118E3FEC7
S319000030C85528C03049007118E3FE5408C08448107118E3FE6C
S319000030DC3408C0E048107118E3FE3408C0F948107118E3FE85
S319000030F03408C0F048107118E3FE3408C10448107118E3FE55
S319000031043408C10848107118E3FE3408C0C448107118E3FE68
S319000031183408C0C548107118E3FE3408C0D17128E0001D298E
S3190000312C5AF07118E3FE5528C0047128E0011D29A50F711897
S31900003140E3FE5528C0047118E3FE5108C00075002FFF2A0003
S31900003154E2F97118E3FE5008C00069C02230E2FA00046380C6
S319000031687118E3FE3408037C63807118E3FE3408037D63803C
S3190000317C7118E3FE3408037E00047120E0011D29C520711FE1
S31900003190E7F4552880107120E0011D29D928711FE7F455289C
S319000031A480107130E0001D29010A711FE7F455288000000443
S319000031B863607118E3F95C0800C863607118E3F95C0800CA53
S319000031CC63607118E3F95C0800CC63607118E3F95C0800CE37
S319000031E00004586D801A580D8018043074030FFF04306A100E
S319000031F41800A0C87110E0201D0808037C68009604306A90E8
S3190000320874030FFF043000F05C0D801248007108E0001C68E3
S3190000321C0390D10348007108E0001C680390D203580D8012AD
S3190000323000E07108E0001C680390B5030004586D801A580DB4
S319000032448018043074030FFF04306A107000A2587110E02086
S319000032581D0808037C68009604306A9074030FFF043000F0DB
S3190000326C1C6D8010B003390D80107008983CE0034800B0037C
S3190000328048007108E0001C880384D10448007108E0001C884E
S319000032940384D204A00300E07108E0001C880384B5040004FF
S319000032A848007138E3F9590900C0740874625D0900C048005D
S319000032BC7138E3F9590900C074086CA45D0900C048007138AE
S319000032D0E3F9590900C07408552A5D0900C048007138E3F9F8
S319000032E4590900C074084DAC5D0900C048107138E3F95909D4
S319000032F800C0740845EE5D0900C048007138E3F9590900C038
S3190000330C740826F65D0900C048007138E3F9590900C074087E
S319000033201F385D0900C048107138E3F9590900C07408177A0A
S319000033345D0900C000047118E3F93008084000C0340D8000EF
S3190000334800047460063F6D8000207118E3F954080C08000468
S3190000335C1C8D801AA0341C03FF9A00E0B0041C6D8018A053E0
S319000033701C05FF9A00E0B003380D801A00F02A001CCD800C88
S319000033841CAD800EE0034800B004380D801800F02A10E0030F
S319000033984800B003A0037407043FA0040D07E10CA074A00363
S319000033AC06701900A064A0047C0803D600F0B006E80BA073C7
S319000033C0A00406701900A064A0037C0803D600F0B006380DD1
S319000033D4800C2AA0E106A0351C030001B005E8034800B00510
S319000033E80004182106E0D7F1480FE802200F709F9F10E4FDD1
S319000033FCC7F121F10004182106900080540100741B0109505C
S319000034104800D4011F0D80001F2D80011F4D800879FFFC8321
S3190000342479FFFD6379FFFD3F7800055B79FFFD897800022D85
S31900003438780002A979FFFE6D700003517108E0001C6803A828
S3190000344CD0032C007108E0001C6803A8D1032C007108E00086
S319000034601C6803A8D203700003527108E0001C68039CD0033A
S3190000347448007108E0001C68039CD10348007108E0001C6881
S31900003488039CD203700003507108E0001C680390D003700040
S3190000349C02507108E0001C680384D003700003537108E0006E
S319000034B01C680378D003709BE6AE1C84BEEF7108E0001C6867
S319000034C40378D143709BE6AE1C84BEEF7108E0001C6803781B
S319000034D8D2438008900979FFFE5D800A2A10E627E0052A00F1
S319000034ECE007780001182A307A000112E87380082A007A02DE
S31900003500010880092A007A1201004810900A7108E0001C6899
S3190000351403A8C043C1035481004454010048C2035401004C0F
S319000035281FE1004401F3780003B3E86A80082A00E21780099D
S3190000353C2A00E6144800900A7108E0001C68039CC043C1032C
S31900003550DE41DF01C203540100401FC1003801E37800038110
S31900003564E8517800047D79FFFDF31C6D800EA0032210E40ED5
S319000035781C6D801AA0331C8D8018A004043074030FFF043071
S3190000358C6A102B40E01579FFFCAD79FFFC4D7108E0001C688C
S319000035A00384C043C103DB41DC01C203DD011FA1002C01D367
S319000035B47800032DE8274820900A7108E0001C68039CC043C5
S319000035C8C103D841D901C203DA011F81002001C3780003098A
S319000035DCE8157108E0001C680378C043C103D541D601C20307
S319000035F0D7011F61001401B3780002E948107118E3F9340845
S319000036040602800A7403063F79FFFD3F79FFFDDBC4311C0346
S319000036180001D40179FFFEBE1B0108505001007400901C2188
S3190000362C007000047008E0007000C000707FE7F554038010D6
S319000036407000E000707FE7F5540380007C00814600047000C7
S31900003654E0007002C0007C1F0BA600047070E0012003711F86
S31900003668E7F954684000712FE20A1D297727711FE7F955280F
S3190000367C400C4800713FE7F951094000740807FE5509400057
S31900003690712101037118E3F95D280120712102047118E3F982
S319000036A45D280122712102047118E3F95D2801247121020425
S319000036B87118E3F95D28012648207118E3F93408050748206A
S319000036CC7118E3F93408050848307118E3F93408050900040B
S319000036E0182106F00080D5017120E0021D29DF80711FE7F9C3
S319000036F455284034780001297120E0011D291D80711FE7F964
S3190000370855284034780001157120E0011D294C00711FE7F9B4
S3190000371C55284034780001017120E0011D290D00711FE7F9F3
S3190000373055284034780000ED7120E0011D294E28711FE7F98B
S3190000374455284034780000D97120E0011D290F00711FE7F9F2
S3190000375855284034780000C57120E0011D295A00711FE7F9A7
S3190000376C55284034780000B17120E0011D291D80711FE7F964
S31900003780552840347800009D7120E0011D295A00711FE7F9A7
S3190000379455284034780000897120E0011D2960C0711FE7F9E1
S319000037A855284034780000757120E0011D292100711FE7F9E0
S319000037BC55284034780000617120E0011D2966C0711FE7F9DB
S319000037D0552840347800004D7120E0011D292700711FE7F9DA
S319000037E455284034780000397120E0011D2968C0711FE7F9D9
S319000037F855284034780000257120E0011D292900711FE7F9D8
S3190000380C552840347800001178000039C501009020F100040C
S31900003820711FE7F95108402C75007FFF2200E2F9711FE7F9F9
S319000038345008403800E05C0D800A7130E002711FE7F9552867
S31900003848402C0004182106E0D7F1712AE0001D29003F711F7F
S3190000385CE7FC552840007060E0DB2053711FE7FC5468400441
S31900003870480FE811480477E0063F74032037713FE7FC7D29FF
S319000038841A14510940807488C10E55094080200F77E0063F2E
S319000038987000A840E4EC4880713FE7FC510940807408C10E2E
S319000038AC55094080712006247118E3F95D280094637071184F
S319000038C0E3F95C08009648107118E3F9340805004BF0711F4F
S319000038D4E7FC54084000C7F121F10004182106E0D7F148005E
S319000038E8713FE7FC510940807408AA9455094080C003713FCE
S319000038FCE7FC51094084740890DA550940844800713FE7FCCE
S31900003910510940807408A2D6550940804880713FE7FC5109BC
S3190000392440807408831E55094080480FE81277E0063F180089
S31900003938B0077C830214840400C077E4063F711FE7FC7D08C9
S3190000394C221434084088200F77E0063F2270E4EC4810713FF2
S31900003960E7FC510940807408B2525509408048C0713FE7FC17
S31900003974510940807408C10E55094080C7F121F10004632065
S319000039887118E3F95C0800E063207118E3F95C0800E46320C9
S3190000399C7118E3F95C0800E863207118E3F95C0800EC6220A6
S319000039B0707FE7E0D003712A0500711FE7E0552800A87120C7
S319000039C4E0011D298606711FE7E0552800984814707FE7E0B8
S319000039D8C0037480C1CED0030004711FE7E0510801B87500DA
S319000039EC6FFF2200E2F9711FE7E0510801A0750005BF00E0EC
S31900003A005C0D801A711FE7E0510801A8750005BF00E05C0DCE
S31900003A148018711FE7E0510801B0750005BF00E05C0D801687
S31900003A28711FE7E0510801B8750005BF00E05C0D8014000401
S31900003A3C0080D101182106F078000039518D8020700C9800AC
S31900003A50E6077D8903A600074800540D8020518D8024700C72
S31900003A649800E6077D8903A600074800540D802479FFF5DD76
S31900003A7878000036182106E00080D901D7F11FED8028E80A9F
S31900003A8CC0032C04D00F51830004C2337D8903A60007C03FCC
S31900003AA02A03E2F5C901C7F1009021F10004C011C1010090BD
S30900003AB40004000004
S31100003AB8D03444007C0006AC440000043E
S31900003AC40000000000000000000000000000000000000000E8
S31900003AD80000000000000000000000000000000000000000D4
S31900003AEC0000000000000000000000000000000000000000C0
S31900003B000000000000000000000000000000000000000000AB
S3090000400001010000B4
S705000000D426
