S0030000FC
S30D00000000015A0000000000CCCB
S319000000080000000000000000000000080000000800000008C6
S3190000001C000000840000008C0000008C0000020C0000100010
S3190000003000001000000000F40000110000001100000000A4EC
S3190000004400003000000030000000065C0000366000003660B4
S319000000580000000C00003800400003480000000400000000BB
S3190000006C00000000000000004000000000000348400003505C
S311000000800000001400000000000000005A
S3190000008C008F7800002B009F000470BF7FF1463506530434DA
S319000000A07C00286C00017C002FAC18A5900818849CF8E0F782
S319000000B400010004008E78002F9978003515780034EF009E64
S319000000C800040000780000050236024702587800008179FF51
S319000000DCFFB3182106F84800D0012C00D1017800008770603B
S319000000F0E0001C63303E0093000570C0E0001CC6356E009666
S31900000104036303740385000570C0E0001CC635E000960005D5
S31900000118182106E000802A05D901D7F1D6E1015F013EE60918
S3190000012C0D43E6077800009501E301F479FFFF5FC901C7F13E
S31900000140C6E1009021F100042A04E605014548047800012E06
S3190000015400047028E0011C2180007048E0011C42836471A860
S31900000168E0011DAD83480004182106E00080D901D7F173E06F
S3190000017CE0001FFF0008C04F2A04E207C10F2A00E204C20F8C
S319000001902A00E606C13FC25FE9C020BFE8F373E0E0001FFF6A
S319000001A40074C03F2A03E204C10F2A00E605C14FE9CA207F74
S319000001B8E8F7C901C7F1009021F100040D34E40D24041CC3ED
S319000001CCFFFF2005E80581049106200420062605E2FBE80EA5
S319000001E004547CC32A142005E8073004FFFF3406FFFF24048A
S319000001F424062605E2F90004182106E023F500C4D7F12403D3
S31900000208E4327C6018F81800C803E6060605914326002003E3
S3190000021CE2FD7487402F74BFD97F7486C00F7480801F44470D
S3190000023044601824A80044702A0F7C84019E2423E60CD14353
S31900000244260FD243D343D443D543D643D743D84321F3E2F6D7
S3190000025874A0F77F2A00E605D14326002033E2FD20232E35DB
S3190000026C2A05E605914326052003E2FDC7F121F10004182156
S3190000028006E00080D901D7F1013FE9B901F3C7F1C901009074
S3090000029421F100044A
S3190000029800000000000000000000000000000000000000004C
S319000002AC000000000000000000000000000000000000000038
S319000002C0000000000000000000000000000000000000000024
S319000002D4000000000000000000000000000000000000000010
S31900001000E8004400440044004400440044004400E8004400E6
S31900001014440044004400440044004400E80044004400440076
S319000010284400440044004400E8004400440044004400440062
S3190000103C44004400780000C044004400440044004400440042
S31900001050E8004400440044004400440044004400E800440096
S31900001064440044004400440044004400E80044004400440026
S319000010784400440044004400E8004400440044004400440012
S3190000108C44004400E8004400440044004400440044004400FE
S319000010A0E8004400440044004400440044004400E800440046
S319000010B4440044004400440044004400E800440044004400D6
S319000010C84400440044004400E80044004400440044004400C2
S319000010DC44004400E8004400440044004400440044004400AE
S309000010F0E80000000E
S31900001100182106A0D80100A0D4017C0102A6D5017C0000260B
S31900001114D6010080D701D931DA41DB51DC61DD715501003828
S319000011285521003C55410040556100445581004857E1005C79
S3190000113C711FE7F553E88010519F00007D8903A60007480074
S31900001150711FE7F55408801853E1005CC931CA41CB51CC6147
S31900001164CD71510100385121003C5141004051610044518161
S319000011780048C40100B0C5017C0103A6C6017C0FF120C70189
S3190000118C0090C8011C2100600008000000000000000000004B
S309000011A0000800003D
S319000011A4000000000000000000000000000000000000000031
S319000011B800000000000000000000000000000000000000001D
S319000011CC000000000000000000000000000000000000000009
S319000011E00000000000000000000000000000000000000000F5
S31900003000182106E00080D9017100E0001C683660C043C1030B
S31900003014D441D501C203D6017062E0861C6380ED7098E3F913
S319000030281C84801C1D8100107D8903A60007C901009021F182
S3190000303C0004182106F00080D501E9DDC501009020F10004C0
S3190000305000007120E0011D29C520711FE7F4552880107120C0
S31900003064E0011D29D928711FE7F455288010707FE700209329
S31900003078711FE7F4546880007168E0007160C0007180E0007C
S3190000308C7180C1007D8903A6180B09001D6B00807A20FFF804
S319000030A0000449D07118E3FE5408C0087120E2401D29010071
S319000030B47118E3FE552800A07120E01F1D2900747118E3FEC7
S319000030C85528C03049007118E3FE5408C08448107118E3FE6C
S319000030DC3408C0E048107118E3FE3408C0F948107118E3FE85
S319000030F03408C0F048107118E3FE3408C10448107118E3FE55
S319000031043408C10848107118E3FE3408C0C448107118E3FE68
S319000031183408C0C548107118E3FE3408C0D17128E0001D298E
S3190000312C5AF07118E3FE5528C0047128E0011D29A50F711897
S31900003140E3FE5528C0047118E3FE5108C00075002FFF2A0003
S31900003154E2F97118E3FE5008C00069C02230E2FA00046380C6
S319000031687118E3FE3408037C63807118E3FE3408037D63803C
S3190000317C7118E3FE3408037E00047120E0011D29C520711FE1
S31900003190E7F4552880107120E0011D29D928711FE7F455289C
S319000031A480107130E0001D29010A711FE7F455288000000443
S319000031B8182106E0D7F1712AE0001D29003F711FE7FC552826
S319000031CC40007060E0DB2053711FE7FC54684004480FE811E8
S319000031E0480477E0063F74032037713FE7FC7D291A1451095E
S319000031F440807488C10E55094080200F77E0063F7000A840F5
S31900003208E4EC4880713FE7FC510940807408C10E55094080FE
S3190000321C712006247118E3F95D28009463707118E3F95C08C3
S31900003230009648107118E3F9340805004BF0711FE7FC5408E6
S319000032444000C7F121F100047070E0012003711FE7F9546852
S319000032584000712FE20A1D297727711FE7F95528400C48002B
S3190000326C713FE7F951094000740807FE550940007121010369
S319000032807118E3F95D280120712102047118E3F95D28012284
S31900003294712102047118E3F95D280124712102047118E3F97C
S319000032A85D28012648207118E3F93408050748207118E3F97E
S319000032BC3408050848307118E3F9340805090004711FE7F914
S319000032D05108402C75007FFF2200E2F9711FE7F950084038EF
S319000032E400E05C0D80087130E002711FE7F95528402C00041F
S319000032F863207118E3F95C0800706220707FE7E0D00348703D
S3190000330C711FE7E0540800A87120E0011D298606711FE7E0B1
S31900003320552800984814707FE7E0C0037480C1CED00300044F
S3190000333463607118E3F95C0800C863607118E3F95C0800CAD5
S3190000334863607118E3F95C0800CC63607118E3F95C0800CEB9
S3190000335C0004182106F00080D5017120E0021D29DF80711F26
S31900003370E7F95528403479FFFF577120E0011D291D80711FBF
S31900003384E7F95528403479FFFF437120E0011D294C00711F10
S31900003398E7F95528403479FFFF2F7120E0011D290D00711F4F
S319000033ACE7F95528403479FFFF1B7120E0011D294E28711FE6
S319000033C0E7F95528403479FFFF077120E0011D290F00711F4D
S319000033D4E7F95528403479FFFEF37120E0011D295A00711F03
S319000033E8E7F95528403479FFFEDF7120E0011D291D80711FC0
S319000033FCE7F95528403479FFFECB7120E0011D295A00711F03
S31900003410E7F95528403479FFFEB77120E0011D2960C0711F3C
S31900003424E7F95528403479FFFEA37120E0011D292100711F3B
S31900003438E7F95528403479FFFE8F7120E0011D2966C0711F36
S3190000344CE7F95528403479FFFE7B7120E0011D292700711F35
S31900003460E7F95528403479FFFE677120E0011D2968C0711F34
S31900003474E7F95528403479FFFE537120E0011D292900711F33
S31900003488E7F95528403479FFFE3F79FFFD27C501009020F1A1
S3190000349C000448007138E3F9590900C0740874625D0900C0AB
S319000034B048007138E3F9590900C074086CA45D0900C0480019
S319000034C47138E3F9590900C07408552A5D0900C04800713835
S319000034D8E3F9590900C074084DAC5D0900C048107138E3F964
S319000034EC590900C0740845EE5D0900C048007138E3F95909A0
S3190000350000C0740826F65D0900C048007138E3F9590900C044
S3190000351474081F385D0900C048107138E3F9590900C0740829
S31900003528177A5D0900C000047118E3F93008084000C0340DE8
S3190000353C80007118E3F951080C081909D30F7118E3F955283D
S319000035500C087118E3F950680C08300D80006D8000204630DC
S319000035647118E3F954080C080004182106E00080D9014800B3
S31900003578D40179FFFB2979FFFC0979FFFBE579FFFD7379FF93
S3190000358CFDAB79FFFBD979FFFCBB79FFFDC9E982E9CAC431B1
S319000035A01C030001D401E8FBC901009021F100047008E00071
S319000035B47000C000707FE7F5540380107000E000707FE7F500
S319000035C8540380007C00814600047000E0007002C0007C1FAE
S319000035DC0BA600040080D101182106F078000039518D801080
S319000035F0700C9800E6077D8903A600074800540D8010518DF3
S319000036048014700C9800E6077D8903A600074800540D801424
S3190000361879FFFA3978000036182106E00080D901D7F11FEDF2
S3190000362C8018E80AC0032C04D00F51830004C2337D8903A6AC
S319000036400007C03F2A03E2F5C901C7F1009021F10004C0116D
S30D00003654C10100900004000012
S31100003660D03444007C0006AC440000049A
S3190000366C000000000000000000000000000000000000000044
S31900003680000000000000000000000000000000000000000030
S3190000369400000000000000000000000000000000000000001C
S319000036A8000000000000000000000000000000000000000008
S319000036BC0000000000000000000000000000000000000000F4
S319000036D00000000000000000000000000000000000000000E0
S319000036E40000000000000000000000000000000000000000CC
S319000036F80000000000000000000000000000000000000000B8
S3190000370C0000000000000000000000000000000000000000A3
S3190000372000000000000000000000000000000000000000008F
S3190000373400000000000000000000000000000000000000007B
S31900003748000000000000000000000000000000000000000067
S3190000375C000000000000000000000000000000000000000053
S3190000377000000000000000000000000000000000000000003F
S3190000378400000000000000000000000000000000000000002B
S31900003798000000000000000000000000000000000000000017
S319000037AC000000000000000000000000000000000000000003
S319000037C00000000000000000000000000000000000000000EF
S319000037D40000000000000000000000000000000000000000DB
S319000037E80000000000000000000000000000000000000000C7
S3090000380001000000BD
S705000000CC2E
