S0030000FC
S30D00000000015A0000000000D4C3
S319000000080000000000000000000000080000000800000008C6
S3190000001C0000008C00000094000000940000020C00001000F8
S3190000003000001000000000F40000110000001100000000A4EC
S31900000044000030000000300000000AC800003AC800003AC86C
S319000000580000000C00004000400003480000000400000000B3
S3190000006C00000000000000004000000000000348400003505C
S319000000800000001C400003700000003C00000000000000005B
S31900000094008F7800002B009F000470BF7FF1463506530434D2
S319000000A87C00286C00017C002FAC18A5900818849CF8E0F77A
S319000000BC00010004008E78002F917800397978003953009E93
S319000000D000040000780000050236024702587800008179FF49
S319000000E4FFB3182106F84800D0012C00D10178000087706033
S319000000F8E0001C63303E0093000570C0E0001CC637A8009622
S3190000010C036303740385000570C0E0001CC63A4C009600055C
S31900000120182106E000802A05D901D7F1D6E1015F013EE60910
S319000001340D43E6077800009501E301F479FFFF5FC901C7F136
S31900000148C6E1009021F100042A04E605014548047800012EFE
S3190000015C00047028E0011C2180007048E0011C42836C71A850
S31900000170E0011DAD83480004182106E00080D901D7F173E067
S31900000184E0001FFF0008C04F2A04E207C10F2A00E204C20F84
S319000001982A00E606C13FC25FE9C020BFE8F373E0E0001FFF62
S319000001AC0074C03F2A03E204C10F2A00E605C14FE9CA207F6C
S319000001C0E8F7C901C7F1009021F100040D34E40D24041CC3E5
S319000001D4FFFF2005E80581049106200420062605E2FBE80E9D
S319000001E804547CC32A142005E8073004FFFF3406FFFF240482
S319000001FC24062605E2F90004182106E023F500C4D7F12403CB
S31900000210E4327C6018F81800C803E6060605914326002003DB
S31900000224E2FD7487402F74BFD97F7486C00F7480801F444705
S3190000023844601824A80044702A0F7C84019E2423E60CD1434B
S3190000024C260FD243D343D443D543D643D743D84321F3E2F6CF
S3190000026074A0F77F2A00E605D14326002033E2FD20232E35D3
S319000002742A05E605914326052003E2FDC7F121F1000418214E
S3190000028806E00080D901D7F1013FE9B901F3C7F1C90100906C
S3090000029C21F1000442
S319000002A0000000000000000000000000000000000000000044
S319000002B4000000000000000000000000000000000000000030
S319000002C800000000000000000000000000000000000000001C
S319000002DC000000000000000000000000000000000000000008
S31900001000E8004400440044004400440044004400E8004400E6
S31900001014440044004400440044004400E80044004400440076
S319000010284400440044004400E8004400440044004400440062
S3190000103C44004400780000C044004400440044004400440042
S31900001050E8004400440044004400440044004400E800440096
S31900001064440044004400440044004400E80044004400440026
S319000010784400440044004400E8004400440044004400440012
S3190000108C44004400E8004400440044004400440044004400FE
S319000010A0E8004400440044004400440044004400E800440046
S319000010B4440044004400440044004400E800440044004400D6
S319000010C84400440044004400E80044004400440044004400C2
S319000010DC44004400E8004400440044004400440044004400AE
S309000010F0E80000000E
S31900001100182106A0D80100A0D4017C0102A6D5017C0000260B
S31900001114D6010080D701D931DA41DB51DC61DD715501003828
S319000011285521003C55410040556100445581004857E1005C79
S3190000113C711FE7F553E88010519F00007D8903A60007480074
S31900001150711FE7F55408801853E1005CC931CA41CB51CC6147
S31900001164CD71510100385121003C5141004051610044518161
S319000011780048C40100B0C5017C0103A6C6017C0FF120C70189
S3190000118C0090C8011C2100600008000000000000000000004B
S309000011A0000800003D
S319000011A4000000000000000000000000000000000000000031
S319000011B800000000000000000000000000000000000000001D
S319000011CC000000000000000000000000000000000000000009
S319000011E00000000000000000000000000000000000000000F5
S31900003000182106E00080D9017100E0001C683AC8C043C1039F
S31900003014D441D501C203D6017062E0861C6380ED7098E3F913
S319000030281C84801C1D8100107D8903A60007C901009021F182
S3190000303C0004182106F00080D501E9DDC501009020F10004C0
S3190000305000007120E0011D29C520711FE7F4552880107120C0
S31900003064E0011D29D928711FE7F455288010707FE700209329
S31900003078711FE7F4546880007168E0007160C0007180E0007C
S3190000308C7180C1007D8903A6180B09001D6B00807A20FFF804
S319000030A0000449D07118E3FE5408C0087120E2401D29010071
S319000030B47118E3FE552800A07120E01F1D2900747118E3FEC7
S319000030C85528C03049007118E3FE5408C08448107118E3FE6C
S319000030DC3408C0E048107118E3FE3408C0F948107118E3FE85
S319000030F03408C0F048107118E3FE3408C10448107118E3FE55
S319000031043408C10848107118E3FE3408C0C448107118E3FE68
S319000031183408C0C548107118E3FE3408C0D17128E0001D298E
S3190000312C5AF07118E3FE5528C0047128E0011D29A50F711897
S31900003140E3FE5528C0047118E3FE5108C00075002FFF2A0003
S31900003154E2F97118E3FE5008C00069C02230E2FA00046380C6
S319000031687118E3FE3408037C63807118E3FE3408037D63803C
S3190000317C7118E3FE3408037E00047120E0011D29C520711FE1
S31900003190E7F4552880107120E0011D29D928711FE7F455289C
S319000031A480107130E0001D29010A711FE7F455288000000443
S319000031B8182106E0D7F1712AE0001D29003F711FE7FC552826
S319000031CC40007060E0DB2053711FE7FC54684004480FE811E8
S319000031E0480477E0063F74032037713FE7FC7D291A1451095E
S319000031F440807488C10E55094080200F77E0063F7000A840F5
S31900003208E4EC4880713FE7FC510940807408C10E55094080FE
S3190000321C712006247118E3F95D28009463707118E3F95C08C3
S31900003230009648107118E3F9340805004BF0711FE7FC5408E6
S319000032444000C7F121F100047070E0012003711FE7F9546852
S319000032584000712FE20A1D297727711FE7F95528400C48002B
S3190000326C713FE7F951094000740807FE550940007121010369
S319000032807118E3F95D280120712102047118E3F95D28012284
S31900003294712102047118E3F95D280124712102047118E3F97C
S319000032A85D28012648207118E3F93408050748207118E3F97E
S319000032BC3408050848307118E3F9340805090004711FE7F914
S319000032D05108402C75007FFF2200E2F9711FE7F950084038EF
S319000032E400E05C0D800A7130E002711FE7F95528402C00041D
S319000032F863207118E3F95C08007063207118E3F95C08007242
S3190000330C6220707FE7E0D0034870711FE7E0540800A87120F8
S31900003320E0011D298606711FE7E0552800984814707FE7E062
S31900003334C0037480C1CED0030004711FE7E0510801847500B8
S319000033486FFF2200E2F9711FE7E051080180750805BF2CA0C2
S3190000335C7C68001000E35C6D8016711FE7E05108018475086F
S3190000337005BF7C08001000E05C0D8014000463607118E3F9E2
S319000033845C0800C863607118E3F95C0800CA63607118E3F985
S319000033985C0800CC63607118E3F95C0800CE00046360711841
S319000033ACE3F95C08004048007118E3F934080600000418215B
S319000033C006F00080D5017120E0021D29DF80711FE7F95528A2
S319000033D4403479FFFEF77120E0011D291D80711FE7F95528BC
S319000033E8403479FFFEE37120E0011D294C00711FE7F955280D
S319000033FC403479FFFECF7120E0011D290D00711FE7F955284C
S31900003410403479FFFEBB7120E0011D294E28711FE7F95528E2
S31900003424403479FFFEA77120E0011D290F00711FE7F9552849
S31900003438403479FFFE937120E0011D295A00711FE7F95528FE
S3190000344C403479FFFE7F7120E0011D291D80711FE7F95528BB
S31900003460403479FFFE6B7120E0011D295A00711FE7F95528FE
S31900003474403479FFFE577120E0011D2960C0711FE7F9552838
S31900003488403479FFFE437120E0011D292100711FE7F9552837
S3190000349C403479FFFE2F7120E0011D2966C0711FE7F9552832
S319000034B0403479FFFE1B7120E0011D292700711FE7F9552831
S319000034C4403479FFFE077120E0011D2968C0711FE7F9552830
S319000034D8403479FFFDF37120E0011D292900711FE7F9552830
S319000034EC403479FFFDDF79FFFCC7C501009020F10004586D93
S319000035008016580D8014043074030FFF04306A101800A0C83B
S319000035147110E0201D0808037C68009604306A9074030FFFBF
S31900003528043000F05C0D801248007108E0001C680388D103E6
S3190000353C48007108E0001C680388D203580D801200E07108A0
S31900003550E0001C680388B5030004586D8016580D801404302E
S3190000356474030FFF04306A107000A2587110E0201D080803FF
S319000035787C68009604306A9074030FFF043000F01C6D8010CF
S3190000358CB003390D80107008983CE0034800B00348007108B1
S319000035A0E0001C88037CD10448007108E0001C88037CD2049F
S319000035B4A00300E07108E0001C88037CB50400044800713850
S319000035C8E3F9590900C0740874625D0900C048007138E3F9A6
S319000035DC590900C074086CA45D0900C048007138E3F95909D2
S319000035F000C07408552A5D0900C048007138E3F9590900C0F1
S3190000360474084DAC5D0900C048107138E3F9590900C0740896
S3190000361845EE5D0900C048007138E3F9590900C0740826F6B8
S3190000362C5D0900C048007138E3F9590900C074081F385D0936
S3190000364000C048107138E3F9590900C07408177A5D0900C07E
S3190000365400047118E3F93008084000C0340D800000047C6012
S3190000366818F87118E3F954080C0800041C8D8016A0341C032D
S3190000367CFF9A00E0B0041C6D8014A0531C05FF9A00E0B003AA
S31900003690380D801600F02A001CCD800C1CAD800EE003480034
S319000036A4B004380D801400F02A10E0034800B003A003740759
S319000036B8043FA0040D07E10CA074A00306701900A064A00422
S319000036CC7C0803D600F0B006E80BA073A00406701900A064A4
S319000036E0A0037C0803D600F0B006380D800C2AA0E106A035D3
S319000036F41C030001B005E8034800B0050004182106E0D7F114
S319000037084800713FE7FC510940807408AA9455094080C00317
S3190000371C713FE7FC51094084740890DA550940844800713FE2
S31900003730E7FC510940807408A2D6550940804880713FE7FC15
S31900003744510940807408831E55094080480FE81277E0063F29
S319000037581800B0077C830214840400C077E4063F711FE7FC18
S3190000376C7D08221434084088200F77E0063F2270E4EC4810FF
S31900003780713FE7FC510940807408B2525509408048C0713F2C
S31900003794E7FC510940807408C10E55094080C7F121F10004E7
S319000037A8717F7F807C21596E0080540100841AC109584800D7
S319000037BCD4011F4D80081F0D80001F2D80011ECD80161EED25
S319000037D0801479FFF8D179FFF9B179FFF98D79FFFB1B79FFE4
S319000037E4FB9D79FFFBC379FFF97D79FFFA5F79FFFBCD79FF86
S319000037F8FDCF700003517108E0001C6803A0D0032C0071082F
S3190000380CE0001C6803A0D1032C007108E0001C6803A0D20346
S31900003820700003527108E0001C680394D00348007108E000E1
S319000038341C680394D10348007108E0001C680394D20370008A
S3190000384803507108E0001C680388D003700002507108E000BD
S3190000385C1C68037CD003700003537108E0001C680370D00393
S31900003870709BE6AE1C84BEEF7108E0001C680370D143709BE3
S31900003884E6AE1C84BEEF7108E0001C680370D243C431711A64
S31900003898E1B71D0817597C08181668D07080A71007302A00F7
S319000038AC7A020154800A2A10E62BE0052A00E0087800013CB0
S319000038C02A307A0001367800010480082A00E21980092A0006
S319000038D4E6167108E0001C6803A0C043C10354810044540129
S319000038E80048C2035401004C1FE1004401F379FFFE0D481005
S319000038FC900AE87D7061E70079FFFD63E87880082A00E21718
S3190000391080092A00E6147108E0001C680394C043C103DE4196
S31900003924DF01C203540100401FC1003801E379FFFDD14800C5
S31900003938900AE85F79FFFA0379FFFD351C6D800EA003221089
S3190000394CE40C5876000058170000043074030FFF04306A10CD
S319000039602B40E02279FFFBF779FFFB9758760000581700002F
S31900003974043074030FFF04306A107403901B79FFFCE57108DE
S31900003988E0001C68037CC043C103DB41DC01C203DD011FA11F
S3190000399C002C01D379FFFD63E82A4820900A7108E0001C6848
S319000039B00394C043C103D841D901C203DA011F81002001C388
S319000039C479FFFD3FE818480379FFFC9B7108E0001C6803708B
S319000039D8C043C103D541D601C203D7011F61001401B379FFC4
S319000039ECFD1948107118E3F9340806008008900979FFFC5BBC
S31900003A00C4311C030001D40179FFFE8C1AC1085850010084B0
S31900003A1400901C21008000047008E0007000C000707FE7F5F4
S31900003A28540380107000E000707FE7F5540380007C00814668
S31900003A3C00047000E0007002C0007C1F0BA600040080D10148
S31900003A50182106F078000039518D8018700C9800E6077D89FF
S31900003A6403A600074800540D8018518D801C700C9800E607DC
S31900003A787D8903A600074800540D801C79FFF5CD7800003651
S31900003A8C182106E00080D901D7F11FED8020E80AC0032C044E
S31900003AA0D00F51830004C2337D8903A60007C03F2A03E2F5A7
S31900003AB4C901C7F1009021F10004C011C101009000040000A9
S31100003AC8D03444007C0006AC440000042E
S31900003AD40000000000000000000000000000000000000000D8
S31900003AE80000000000000000000000000000000000000000C4
S31900003AFC0000000000000000000000000000000000000000B0
S31900003B1000000000000000000000000000000000000000009B
S3090000400001010000B4
S705000000D426
