S0030000FC
S30D00000000015A0000000000C0D7
S319000000080000000000000000000000080000000800000008C6
S3190000001C0000007800000080000000800000020C0000100034
S3190000003000001000000000F40000110000001100000000A4EC
S31900000044000030000000300000000324000033280000332865
S319000000580000000C0000000000000000000000004000000042
S3190000006C000003484000034800000014000000000000000090
S31900000080008F7800002B009F000470BF7FF1463506530434E6
S319000000947C00286C00017C002FAC18A5900818849CF8E0F78E
S319000000A800010004008E78002FA5780031E9780031C3009EC3
S319000000BC00040000780000050236024702587800008179FF5D
S319000000D0FFB3182106F84800D0012C00D10178000087706047
S319000000E4E0001C63303E0093000570C0E0001CC6324800969B
S319000000F8036303740385000570C0E0001CC632A8009600051D
S3190000010C182106E000802A05D901D7F1D6E1015F013EE60924
S319000001200D43E6077800009501E301F479FFFF5FC901C7F14A
S31900000134C6E1009021F100042A04E605014548047800012E12
S3190000014800047028E0011C2180007048E0011C42835C71A874
S3190000015CE0011DAD83480004182106E00080D901D7F173E07B
S31900000170E0001FFF0008C04F2A04E207C10F2A00E204C20F98
S319000001842A00E606C13FC25FE9C020BFE8F373E0E0001FFF76
S319000001980068C03F2A03E204C10F2A00E605C14FE9CA207F8C
S319000001ACE8F7C901C7F1009021F100040D34E40D24041CC3F9
S319000001C0FFFF2005E80581049106200420062605E2FBE80EB1
S319000001D404547CC32A142005E8073004FFFF3406FFFF240496
S319000001E824062605E2F90004182106E023F500C4D7F12403DF
S319000001FCE4327C6018F81800C803E6060605914326002003F0
S31900000210E2FD7487402F74BFD97F7486C00F7480801F444719
S3190000022444601824A80044702A0F7C84019E2423E60CD1435F
S31900000238260FD243D343D443D543D643D743D84321F3E2F6E3
S3190000024C74A0F77F2A00E605D14326002033E2FD20232E35E7
S319000002602A05E605914326052003E2FDC7F121F10004182162
S3190000027406E00080D901D7F1013FE9B901F3C7F1C901009080
S3090000028821F1000456
S3190000028C000000000000000000000000000000000000000058
S319000002A0000000000000000000000000000000000000000044
S319000002B4000000000000000000000000000000000000000030
S319000002C800000000000000000000000000000000000000001C
S31900001000E8004400440044004400440044004400E8004400E6
S31900001014440044004400440044004400E80044004400440076
S319000010284400440044004400E8004400440044004400440062
S3190000103C44004400780000C044004400440044004400440042
S31900001050E8004400440044004400440044004400E800440096
S31900001064440044004400440044004400E80044004400440026
S319000010784400440044004400E8004400440044004400440012
S3190000108C44004400E8004400440044004400440044004400FE
S319000010A0E8004400440044004400440044004400E800440046
S319000010B4440044004400440044004400E800440044004400D6
S319000010C84400440044004400E80044004400440044004400C2
S319000010DC44004400E8004400440044004400440044004400AE
S309000010F0E80000000E
S31900001100182106A0D80100A0D4017C0102A6D5017C0000260B
S31900001114D6010080D701D931DA41DB51DC61DD715501003828
S319000011285521003C55410040556100445581004857E1005C79
S3190000113C711FE7F553E88010519F00007D8903A60007480074
S31900001150711FE7F55408801853E1005CC931CA41CB51CC6147
S31900001164CD71510100385121003C5141004051610044518161
S319000011780048C40100B0C5017C0103A6C6017C0FF120C70189
S3190000118C0090C8011C2100600008000000000000000000004B
S309000011A0000800003D
S319000011A4000000000000000000000000000000000000000031
S319000011B800000000000000000000000000000000000000001D
S319000011CC000000000000000000000000000000000000000009
S319000011E00000000000000000000000000000000000000000F5
S31900003000182106E00080D9017100E0001C683328C043C10346
S31900003014D441D501C203D6017062E0861C6380ED7098E3F913
S319000030281C84801C1D8100107D8903A60007C901009021F182
S3190000303C0004182106F00080D501E9DDC501009020F10004C0
S3190000305000007120E0011D29C520711FE7F4552880107120C0
S31900003064E0011D29D928711FE7F455288010707FE700209329
S31900003078711FE7F4546880007168E0007160C0007180E0007C
S3190000308C7180C1007D8903A6180B09001D6B00807A20FFF804
S319000030A0000449D07118E3FE5408C0087120E2401D29010071
S319000030B47118E3FE552800A07120E01F1D2900747118E3FEC7
S319000030C85528C03049007118E3FE5408C08448107118E3FE6C
S319000030DC3408C0E048107118E3FE3408C0F948107118E3FE85
S319000030F03408C0F048107118E3FE3408C10448107118E3FE55
S319000031043408C1087128E0001D295AF07118E3FE5528C004F8
S319000031187128E0011D29A50F7118E3FE5528C0047118E3FE14
S3190000312C5108C00075002FFF2A00E2F97118E3FE5008C00046
S3190000314069C02230E2FA00047120E0011D29C520711FE7F412
S31900003154552880107120E0011D29D928711FE7F45528801023
S319000031687130E0001D29010A711FE7F455288000000463802C
S3190000317C7118E3FE3408037C63807118E3FE3408037E000406
S3190000319063207118E3F95C0800706220707FE7E0D0034870A6
S319000031A4711FE7E0540800A87120E0011D298606711FE7E01B
S319000031B8552800984814707FE7E0C0037480C1CED0030004B9
S319000031CC711FE7E05108018475006FFF2200E2F9711FE7E07D
S319000031E051080180750005BF00E05C0D8000000463607118A9
S319000031F4E3F95C0800C863607118E3F95C0800CA6360711817
S31900003208E3F95C0800CC63607118E3F95C0800CE00047118B9
S3190000321CE3F951080C081909D30F7118E3F955280C087118CC
S31900003230E3F950680C08580D80006D2046307118E3F9540833
S319000032440C080004182106E00080D9014800D40179FFFE4FFD
S3190000325879FFFEF1E98FE999E9C8E9B5E9DBC4311C030001D3
S3190000326CD401E8FAC901009021F100047008E0007000C00099
S31900003280707FE7F5540380107000E000707FE7F55403800090
S319000032947C00814600047000E0007002C0007C1F0BA6000407
S319000032A80080D101182106F078000039518D8008700C980060
S319000032BCE6077D8903A600074800540D8008518D800C700C3E
S319000032D09800E6077D8903A600074800540D800C79FFFD718E
S319000032E478000036182106E00080D901D7F11FED8010E80A53
S319000032F8C0032C04D00F51830004C2337D8903A60007C03F68
S3190000330C2A03E2F5C901C7F1009021F10004C011C101009058
S30900003320000400009F
S31100003328D03444007C0006AC44000004D5
S705000000C03A
